:100000000C942A000C943F000C943F000C943F0089
:100010000C943F000C943F000C943F000C943F0064
:100020000C943F000C943F000C943F000C943F0054
:100030000C943F000C943F000C943F000C943F0044
:100040000C943F000C943F000C943F000C943F0034
:100050000C943F0011241FBECFE5D8E0DEBFCDBF1A
:1000600010E0A0E6B0E0E6EDF8E202C005900D92E7
:10007000AC3EB107D9F70E94370C0C9469140C946C
:100080000000EF92FF920F931F937B018C0120E001
:1000900030E040E05FE40E94410388238CF0C80117
:1000A000B70120E030E040E05FE40E94B9010E9427
:1000B000A1039B01AC01205030404040504806C095
:1000C000C801B7010E94A1039B01AC01B901CA019B
:1000D0001F910F91FF90EF900895A0E0B0E0E3E74B
:1000E000F0E00C943214DC012B01FA019C91923067
:1000F00008F439C1EB018881823008F433C19430AF
:1001000069F4843009F02FC111969C91119789816F
:10011000981709F428C1A3EBB0E025C1843009F495
:1001200021C18230A9F4923009F01DC19A01AD01BC
:1001300088E0EA010990AE01E90109929E0181502F
:10014000C1F7E201898111969C918923818308C1BD
:10015000923009F407C112962D903C901397EB0151
:100160008A819B811496AD90BD90CD90DC901797BD
:10017000EC80FD800E811F819101281B390BB90194
:1001800037FF04C066277727621B730B6032710547
:100190000CF061C0121613066CF537014801062EEB
:1001A00004C096948794779467940A94D2F721E0D8
:1001B00030E040E050E004C0220F331F441F551FC1
:1001C0006A95D2F721503040404050402E213F21C7
:1001D00040235123211531054105510521F021E02E
:1001E00030E040E050E079018A01E628F72808294C
:1001F00019293CC0232BD1F1260E371E35014601AB
:10020000062E04C096948794779467940A94D2F744
:1002100021E030E040E050E004C0220F331F441FD3
:10022000551F6A95D2F721503040404050402A2156
:100230003B214C215D21211531054105510521F05E
:1002400021E030E040E050E059016A01A628B728DB
:10025000C828D9280BC0821593052CF01C01AA24AC
:10026000BB24650103C0EE24FF24870111969C91F5
:10027000D20111968C91981709F445C0992339F051
:10028000A80197012A193B094C095D0906C0A6017E
:1002900095012E193F09400B510B57FD08C01182E3
:1002A0003382228224833583468357831DC081E0B5
:1002B00081833382228288279927DC01821B930B5A
:1002C000A40BB50B84839583A683B7830DC0220F3F
:1002D000331F441F551F24833583468357838281F0
:1002E000938101979383828324813581468157814D
:1002F000DA01C9010197A109B1098F5F9F4FAF4F83
:10030000BF4328F30BC0918333822282EA0CFB1C8B
:100310000C1D1D1DE482F5820683178383E0808314
:10032000248135814681578157FF1AC0C901AA2708
:1003300097FDA095BA2F81709070A070B0705695FF
:10034000479537952795822B932BA42BB52B848328
:100350009583A683B7838281938101969383828359
:10036000DF0101C0D201CD01CDB7DEB7E2E10C94CF
:100370004E14A0E2B0E0EFEBF1E00C943E14698380
:100380007A838B839C832D833E834F835887E9E058
:10039000EE2EF12CEC0EFD1ECE010196B7010E944F
:1003A000CA048E010F5E1F4FCE010596B8010E9450
:1003B000CA048A8991E089278A8BC701B801AE01F6
:1003C000475E5F4F0E946D000E94F503A096E6E035
:1003D0000C945A14A0E2B0E0E0EFF1E00C943E146B
:1003E00069837A838B839C832D833E834F835887D5
:1003F000F9E0EF2EF12CEC0EFD1ECE010196B701B7
:100400000E94CA048E010F5E1F4FCE010596B801EF
:100410000E94CA04C701B801AE01475E5F4F0E9447
:100420006D000E94F503A096E6E00C945A14A0E239
:10043000B0E0EDE1F2E00C94321469837A838B83AF
:100440009C832D833E834F835887CE010196BE0146
:10045000675F7F4F0E94CA04CE010596BE016F5EA2
:100460007F4F0E94CA049985923088F08989823032
:10047000C8F0943019F4823051F404C0843029F467
:10048000923081F483EB90E0C6C0923049F420E0D2
:100490009A858A89981321E02A87CE010996BBC0E4
:1004A000823049F420E09A858A89981321E02A8BCA
:1004B000CE014196B0C02D843E844F8458886D880B
:1004C0007E888F88988CEE24FF248701AA24BB2481
:1004D000650140E050E060E070E0E0E0F0E0C10184
:1004E00081709070892BE9F0E60CF71C081D191D2E
:1004F0009A01AB012A0D3B1D4C1D5D1D80E090E073
:10050000A0E0B0E0E614F7040805190520F481E046
:1005100090E0A0E0B0E0BA01A901480F591F6A1F9E
:100520007B1FAA0CBB1CCC1CDD1C97FE08C081E005
:1005300090E0A0E0B0E0A82AB92ACA2ADB2A3196C6
:10054000E032F10549F0660C771C881C991C569422
:10055000479437942794C3CFFA85EA892B893C893D
:100560008B859C85280F391F2E5F3F4F17C0CA010E
:1005700081709070892B61F016950795F794E79438
:1005800080E090E0A0E0B0E8E82AF92A0A2B1B2BD3
:1005900076956795579547952F5F3F4F77FDE7CF46
:1005A0000CC0440F551F661F771F17FD4160EE0CEE
:1005B000FF1C001F111F21503040403090E05907B0
:1005C00090E0690790E4790760F32B8F3C8FDB01A3
:1005D000CA018F779070A070B07080349105A1052A
:1005E000B10561F447FD0AC0E114F10401051105EC
:1005F00029F0405C5F4F6F4F7F4F40781A8EFE1797
:1006000011F081E08A8F4D8F5E8F6F8F78A383E02A
:10061000898FCE0149960E94F503A096E2E10C94E1
:100620004E14A8E1B0E0E7E1F3E00C943E146983D6
:100630007A838B839C832D833E834F83588789E005
:10064000E82EF12CEC0EFD1ECE010196B7010E94A2
:10065000CA048E010F5E1F4FCE010596B8010E949D
:10066000CA048985823040F08989823028F0C70128
:10067000B8010E94420501C08FEF6896E6E00C9435
:100680005A14A8E1B0E0E7E4F3E00C943E14698367
:100690007A838B839C832D833E834F83588789E0A5
:1006A000E82EF12CEC0EFD1ECE010196B7010E9442
:1006B000CA048E010F5E1F4FCE010596B8010E943D
:1006C000CA048985823040F08989823028F0C701C8
:1006D000B8010E94420501C08FEF6896E6E00C94D5
:1006E0005A14A8E1B0E0E7E7F3E00C943E14698304
:1006F0007A838B839C832D833E834F83588789E045
:10070000E82EF12CEC0EFD1ECE010196B7010E94E1
:10071000CA048E010F5E1F4FCE010596B8010E94DC
:10072000CA048985823040F08989823028F0C70167
:10073000B8010E94420501C081E06896E6E00C9491
:100740005A14ACE0B0E0E7EAF3E00C944214698399
:100750007A838B839C83CE010196BE016B5F7F4FB2
:100760000E94CA048D81823061F1823050F1843060
:1007700021F48E81882351F12EC02F81388537FDD9
:1007800020C06E812F3131051CF06623F9F023C0A3
:100790008EE190E0821B930B29853A854B855C8521
:1007A00004C056954795379527958A95D2F76623C5
:1007B000B1F050954095309521953F4F4F4F5F4F89
:1007C0000EC020E030E040E050E009C02FEF3FEFE6
:1007D0004FEF5FE704C020E030E040E050E8B901AF
:1007E000CA012C96E2E00C945E14DF92EF92FF9225
:1007F0000F931F93FC01E480F58006811781D1805F
:100800008081823048F480E090E0A0E1B0E0E82A06
:10081000F92A0A2B1B2BA5C0843009F49FC0823013
:1008200021F4EE24FF24870105C0E114F104010541
:10083000110519F4E0E0F0E096C0628173819FEF4A
:10084000623879070CF05BC022E83FEF261B370BBC
:100850002A3131052CF020E030E040E050E02AC0A1
:10086000B801A701022E04C0769567955795479564
:100870000A94D2F781E090E0A0E0B0E004C0880FD5
:10088000991FAA1FBB1F2A95D2F70197A109B10989
:100890008E219F21A023B1230097A105B10521F04E
:1008A00081E090E0A0E0B0E09A01AB01282B392B69
:1008B0004A2B5B2BDA01C9018F779070A070B07062
:1008C00080349105A105B10539F427FF09C0205CEA
:1008D0003F4F4F4F5F4F04C0215C3F4F4F4F5F4F23
:1008E000E0E0F0E02030A0E03A07A0E04A07A0E412
:1008F0005A0710F0E1E0F0E079018A0127C0603882
:10090000710564F5FB01E158FF4FD801C7018F77EE
:100910009070A070B07080349105A105B10539F4D4
:10092000E7FE0DC080E490E0A0E0B0E004C08FE3FB
:1009300090E0A0E0B0E0E80EF91E0A1F1B1F17FFB1
:1009400005C016950795F794E794319687E01695BC
:100950000795F794E7948A95D1F705C0EE24FF2414
:100960008701EFEFF0E06E2F679566276795902F70
:100970009F77D794DD24D7948E2F8695492F462BC9
:10098000582F5D29B701CA011F910F91FF90EF9079
:10099000DF900895FC01DB01408151812281622FAB
:1009A0006F7770E0221F2227221F9381892F880FE3
:1009B000822B282F30E0991F9927991F11969C931D
:1009C000119721153105A9F54115510561057105ED
:1009D00011F482E037C082E89FEF13969C938E93C8
:1009E00012979A01AB0167E0220F331F441F551F76
:1009F0006A95D1F783E08C930DC0220F331F441FFB
:100A0000551F12968D919C911397019713969C9365
:100A10008E931297203080E0380780E0480780E40A
:100A2000580758F314962D933D934D935C93179765
:100A300008952F3F310579F4411551056105710580
:100A400019F484E08C93089564FF03C081E08C93D3
:100A500012C01C9210C02F57304013963C932E9317
:100A6000129783E08C9387E0440F551F661F771F12
:100A70008A95D1F7706414964D935D936D937C9332
:100A8000179708951F93DC01FB019C91923008F4A5
:100A900047C08081823008F443C0943051F41196ED
:100AA0001C91843099F58181682F70E0611B710978
:100AB0003FC0843021F0923031F48230B9F181812D
:100AC000882389F12DC011961C9111978230F1F085
:100AD00081811817D9F412962D913C911397828138
:100AE00093818217930794F028173907BCF0149666
:100AF0008D919D910D90BC91A02D248135814681D1
:100B00005781281739074A075B0718F4112341F06A
:100B10000AC082179307A407B50740F4112319F000
:100B200061E070E005C06FEF7FEF02C060E070E051
:100B3000CB011F910895DF93CF93CDB7DEB72E97EA
:100B40000FB6F894DEBF0FBECDBF8A836B834C8394
:100B500081E089838A81282F30E03E872D878D852B
:100B60009E858130910509F451C02D853E85223046
:100B700031052CF48D859E85009771F0F5C02D858B
:100B80003E852230310509F47BC08D859E858330FA
:100B9000910509F4AFC0E8C08C81282F30E03C8774
:100BA0002B878B859C85009731F02B853C852130E8
:100BB0003105B1F029C0AAE3B0E0EAE3F0E08081BA
:100BC000482F8B81282F30E081E090E0022E02C078
:100BD000880F991F0A94E2F7809584238C93C5C0EF
:100BE000AAE3B0E0EAE3F0E08081482F8B81282F70
:100BF00030E081E090E0022E02C0880F991F0A9435
:100C0000E2F7842B8C93B1C01982AFC08C81282F5E
:100C100030E03A87298789859A85009731F02985C0
:100C20003A8521303105B1F029C0A7E3B0E0E7E310
:100C3000F0E08081482F8B81282F30E081E090E028
:100C4000022E02C0880F991F0A94E2F78095842330
:100C50008C938BC0A7E3B0E0E7E3F0E08081482FFE
:100C60008B81282F30E081E090E0022E02C0880FB7
:100C7000991F0A94E2F7842B8C9377C0198275C070
:100C80008C81282F30E038872F838F8198850097BB
:100C900031F02F81388521303105B1F029C0A4E32E
:100CA000B0E0E4E3F0E08081482F8B81282F30E032
:100CB00081E090E0022E02C0880F991F0A94E2F7AB
:100CC000809584238C9351C0A4E3B0E0E4E3F0E08A
:100CD0008081482F8B81282F30E081E090E0022E28
:100CE00002C0880F991F0A94E2F7842B8C933DC0B1
:100CF00019823BC08C81282F30E03E832D838D816B
:100D00009E81009731F02D813E8121303105B1F077
:100D100029C0A1E3B0E0E1E3F0E08081482F8B81BE
:100D2000282F30E081E090E0022E02C0880F991F4A
:100D30000A94E2F7809584238C9317C0A1E3B0E076
:100D4000E1E3F0E08081482F8B81282F30E081E0C3
:100D500090E0022E02C0880F991F0A94E2F7842BBC
:100D60008C9303C0198201C0198289812E960FB617
:100D7000F894DEBF0FBECDBFCF91DF910895DF9312
:100D8000CF93CDB7DEB72E970FB6F894DEBF0FBE68
:100D9000CDBF8A836B834C8381E089838A81282F2E
:100DA00030E03E872D878D859E858130910509F441
:100DB00051C02D853E85223031052CF48D859E85D0
:100DC000009771F0F5C02D853E852230310509F47C
:100DD0007BC08D859E858330910509F4AFC0E8C046
:100DE0008C81282F30E03C872B878B859C85009752
:100DF00031F02B853C8521303105B1F029C0ABE3C2
:100E0000B0E0EBE3F0E08081482F8B81282F30E0C9
:100E100081E090E0022E02C0880F991F0A94E2F749
:100E2000809584238C93C5C0ABE3B0E0EBE3F0E0A6
:100E30008081482F8B81282F30E081E090E0022EC6
:100E400002C0880F991F0A94E2F7842B8C93B1C0DB
:100E50001982AFC08C81282F30E03A872987898595
:100E60009A85009731F029853A8521303105B1F016
:100E700029C0A8E3B0E0E8E3F0E08081482F8B814F
:100E8000282F30E081E090E0022E02C0880F991FE9
:100E90000A94E2F7809584238C938BC0A8E3B0E09A
:100EA000E8E3F0E08081482F8B81282F30E081E05B
:100EB00090E0022E02C0880F991F0A94E2F7842B5B
:100EC0008C9377C0198275C08C81282F30E03887C9
:100ED0002F838F819885009731F02F8138852130BD
:100EE0003105B1F029C0A5E3B0E0E5E3F0E0808191
:100EF000482F8B81282F30E081E090E0022E02C045
:100F0000880F991F0A94E2F7809584238C9351C02F
:100F1000A5E3B0E0E5E3F0E08081482F8B81282F46
:100F200030E081E090E0022E02C0880F991F0A9401
:100F3000E2F7842B8C933DC019823BC08C81282F13
:100F400030E03E832D838D819E81009731F02D818D
:100F50003E8121303105B1F029C0A2E3B0E0E2E3E7
:100F6000F0E08081482F8B81282F30E081E090E0F5
:100F7000022E02C0880F991F0A94E2F780958423FD
:100F80008C9317C0A2E3B0E0E2E3F0E08081482F49
:100F90008B81282F30E081E090E0022E02C0880F84
:100FA000991F0A94E2F7842B8C9303C0198201C025
:100FB000198289812E960FB6F894DEBF0FBECDBF81
:100FC000CF91DF910895DF93CF93CDB7DEB7279709
:100FD0000FB6F894DEBF0FBECDBF8B836C8381E06C
:100FE0008A838B81282F30E03F832E834E815F815F
:100FF0004130510541F18E819F818230910534F459
:101000002E813F812115310561F053C04E815F81F2
:101010004230510551F18E819F8183309105B9F1A4
:1010200048C0E9E3F0E08081282F30E08C81882FF0
:1010300090E0A90102C0559547958A95E2F7CA014B
:101040008170898337C0E6E3F0E08081282F30E0AB
:101050008C81882F90E0A90102C0559547958A950B
:10106000E2F7CA018170898325C0E3E3F0E0808163
:10107000282F30E08C81882F90E0A90102C055957F
:1010800047958A95E2F7CA018170898313C0E0E32E
:10109000F0E08081282F30E08C81882F90E0A9013A
:1010A00002C0559547958A95E2F7CA0181708983F8
:1010B00001C01A828A81813019F459815D8303C08D
:1010C0001A828A818D838D8127960FB6F894DEBFB0
:1010D0000FBECDBFCF91DF910895DF93CF9300D0A6
:1010E00000D00F92CDB7DEB78A836B8381E089830E
:1010F0008A81282F30E03D832C838C819D81813033
:101100009105D1F02C813D81223031052CF48C8168
:101110009D81009761F01FC02C813D8122303105F7
:1011200081F08C819D818330910581F014C0EAE3C8
:10113000F0E08B81808310C0E7E3F0E08B81808357
:101140000BC0E4E3F0E08B81808306C0E1E3F0E0D4
:101150008B81808301C0198289810F900F900F903D
:101160000F900F90CF91DF910895DF93CF9300D030
:1011700000D00F92CDB7DEB78A836B8381E089837D
:101180008A81282F30E03D832C838C819D818130A2
:101190009105D1F02C813D81223031052CF48C81D8
:1011A0009D81009761F01FC02C813D812230310567
:1011B00081F08C819D818330910581F014C0EBE337
:1011C000F0E08B81808310C0E8E3F0E08B818083C6
:1011D0000BC0E5E3F0E08B81808306C0E2E3F0E042
:1011E0008B81808301C0198289810F900F900F90AD
:1011F0000F900F90CF91DF910895DF93CF9300D0A0
:1012000000D000D0CDB7DEB78B8381E08A838B819D
:10121000282F30E03E832D838D819E818130910582
:10122000D1F02D813E81223031052CF48D819E81BB
:10123000009761F01FC02D813E812230310581F081
:101240008D819E818330910581F014C0E9E3F0E047
:101250008081898310C0E6E3F0E0808189830BC040
:10126000E3E3F0E08081898306C0E0E3F0E0808181
:10127000898301C01A828A81813019F499819C8303
:1012800002C02A812C838C8126960FB6F894DEBF8B
:101290000FBECDBFCF91DF910895DF93CF93CDB730
:1012A000DEB72E970FB6F894DEBF0FBECDBF80E03D
:1012B0006FEF0E946D0881E060E041E00E949B05B5
:1012C00081E061E041E00E949B0581E062E041E055
:1012D0000E949B0580E090E0A0E2B2E48B879C87AF
:1012E000AD87BE876B857C858D859E8520E030E04F
:1012F00048E453E40E941702DC01CB018F839887F6
:10130000A987BA876F81788589859A8520E030E042
:1013100040E85FE30E94710388232CF481E090E0B1
:101320009E838D833FC06F81788589859A8520E073
:101330003FEF4FE757E40E94110318164CF56B85F9
:101340007C858D859E8520E030E040E251E40E945E
:101350001702DC01CB01BC01CD010E944100DC0180
:10136000CB019E838D830FC084E190E09C838B83AF
:101370008B819C810197F1F79C838B838D819E816A
:1013800001979E838D838D819E81009769F714C09C
:101390006F81788589859A850E944100DC01CB01A7
:1013A0009E838D838D819E819A83898389819A8191
:1013B0000197F1F79A83898388E30E94EE098FE011
:1013C0000E94EE0981E00E94EE092E960FB6F89475
:1013D000DEBF0FBECDBFCF91DF910895DF93CF93D6
:1013E000CDB7DEB72F970FB6F894DEBF0FBECDBFD7
:1013F0008F8781E061E040E00E94BF0681E060E00D
:1014000040E00E94BF0680E06F850E94B50881E041
:1014100062E040E00E94BF0681E062E041E00E949D
:10142000BF0680E090E0A0E0B0E48B879C87AD87AA
:10143000BE876B857C858D859E8520E030E048E405
:1014400053E40E941702DC01CB018F839887A987A0
:10145000BA876F81788589859A8520E030E040E8F9
:101460005FE30E94710388232CF481E090E09E8367
:101470008D833FC06F81788589859A8520E03FEF15
:101480004FE757E40E94110318164CF56B857C85D5
:101490008D859E8520E030E040E251E40E941702F5
:1014A000DC01CB01BC01CD010E944100DC01CB017C
:1014B0009E838D830FC084E190E09C838B838B811E
:1014C0009C810197F1F79C838B838D819E8101978D
:1014D0009E838D838D819E81009769F714C06F81F3
:1014E000788589859A850E944100DC01CB019E8325
:1014F0008D838D819E819A83898389819A810197C9
:10150000F1F79A83898381E062E040E00E94BF06A0
:101510002F960FB6F894DEBF0FBECDBFCF91DF91EF
:101520000895DF93CF93CDB7DEB72F970FB6F8941A
:10153000DEBF0FBECDBF8F8781E061E041E00E943A
:10154000BF0681E060E040E00E94BF0680E06F855A
:101550000E94B50881E062E040E00E94BF0681E0A1
:1015600062E041E00E94BF0680E090E0A0E0B0E4CD
:101570008B879C87AD87BE876B857C858D859E8597
:1015800020E030E048E453E40E941702DC01CB0184
:101590008F839887A987BA876F81788589859A858F
:1015A00020E030E040E85FE30E94710388232CF4E0
:1015B00081E090E09E838D833FC06F81788589852F
:1015C0009A8520E03FEF4FE757E40E941103181679
:1015D0004CF56B857C858D859E8520E030E040E272
:1015E00051E40E941702DC01CB01BC01CD010E9435
:1015F0004100DC01CB019E838D830FC084E190E02C
:101600009C838B838B819C810197F1F79C838B83D7
:101610008D819E8101979E838D838D819E81009710
:1016200069F714C06F81788589859A850E94410089
:10163000DC01CB019E838D838D819E819A8389837A
:1016400089819A810197F1F79A83898381E062E029
:1016500040E00E94BF062F960FB6F894DEBF0FBE83
:10166000CDBFCF91DF910895DF93CF93CDB7DEB794
:1016700081E00E94EE09CF91DF910895DF93CF932F
:1016800000D00F92CDB7DEB78A836B8319828A812F
:10169000882319F48B81898306C08A81813019F4EB
:1016A0008B81805C898389818068898389810E949C
:1016B000EE090F900F900F90CF91DF910895DF9377
:1016C000CF9300D00F92CDB7DEB79B838A83198268
:1016D0000EC08981282F30E08A819B81FC01E20FB6
:1016E000F31F80810E94910A89818F5F898389819C
:1016F000282F30E08A819B81FC01E20FF31F80815B
:10170000882339F70F900F900F90CF91DF910895B4
:101710000F931F93DF93CF93CDB7DEB72F970FB6FD
:10172000F894DEBF0FBECDBF6C877D878E879F8705
:1017300019822FC08981082F112707FD10958C85EC
:101740009D85AE85BF852AE030E040E050E0BC01D9
:10175000CD010E941014DC01CB01282FCE0102968E
:10176000FC01E00FF11F20838C859D85AE85BF8530
:101770002AE030E040E050E0BC01CD010E941014AE
:10178000DA01C9018C879D87AE87BF8789818F5F0A
:1017900089838C859D85AE85BF850097A105B105A0
:1017A00049F689818150898311C08981282F332787
:1017B00027FD3095CE010296FC01E20FF31F8081D8
:1017C000805D0E94910A8981815089838981882363
:1017D00064F72F960FB6F894DEBF0FBECDBFCF9142
:1017E000DF911F910F910895DF93CF93CDB7DEB7AF
:1017F00027970FB6F894DEBF0FBECDBF9C838B83B7
:101800006D834E832F8319828D81882F90E0880FFE
:10181000991F880F991F880F991F89838981806478
:10182000898389810E94EE091A820EC08A81282F3D
:1018300030E08B819C81FC01E20FF31F80810E94CC
:10184000910A8A818F5F8A838A81883078F38E81BA
:101850006F810E943E0B8D810E94910A27960FB6E0
:10186000F894DEBF0FBECDBFCF91DF9108950F93E7
:101870001F93DF93CF93CDB7DEB7C45DD0400FB6D3
:10188000F894DEBF0FBECDBF0E944D0980E060E03E
:101890000E943E0B80E690E00E945F0B81E060E0DA
:1018A0000E943E0B8BE690E00E945F0BCE018158B8
:1018B0009F4FC954DF4F99838883C75BD04083EE25
:1018C00090E0C754DF4F99838883C95BD04098E08C
:1018D000C554DF4F9883CB5BD040C754DF4FA881FE
:1018E000B981C95BD0400C90C754DF4FE881F981C2
:1018F000C95BD0403196C754DF4FF983E883C95B99
:10190000D040C954DF4FA881B981C75BD0400C9249
:10191000C954DF4FE881F981C75BD0403196C95483
:10192000DF4FF983E883C75BD040C554DF4FF881B0
:10193000CB5BD040F150C554DF4FF883CB5BD04038
:10194000C554DF4F8881CB5BD040882331F6CE0170
:1019500081589F4F60E041E02CE00E94F40BFE01B3
:10196000E558FF4F80E090E0AAEFB4E480839183D4
:10197000A283B3838E0109581F4FFE01E558FF4F24
:10198000608171818281938120E030E048E453E4FA
:101990000E941702DC01CB01F80180839183A283AE
:1019A000B383FE01E958FF4F608171818281938189
:1019B00020E030E040E85FE30E947103882344F4B4
:1019C000FE01EB58FF4F81E090E09183808364C07B
:1019D000FE01E958FF4F608171818281938120E08F
:1019E0003FEF4FE757E40E94110318160CF043C075
:1019F000FE01E558FF4F608171818281938120E073
:101A000030E040E251E40E941702DC01CB018E017C
:101A10000B581F4FBC01CD010E944100DC01CB01DE
:101A2000F801918380831FC0FE01ED58FF4F84E1D0
:101A300090E091838083FE01ED58FF4F808191817A
:101A40000197F1F7FE01ED58FF4F91838083DE018E
:101A5000AB58BF4FFE01EB58FF4F8081918101973A
:101A600011969C938E93FE01EB58FF4F80819181DC
:101A70000097D1F627C08E010B581F4FFE01E95881
:101A8000FF4F60817181828193810E944100DC015E
:101A9000CB01F80191838083DE01AF58BF4FFE0177
:101AA000EB58FF4F808191818D939C93FE01EF58FD
:101AB000FF4F808191810197F1F7FE01EF58FF4FB1
:101AC000918380830E94340B80E060E00E943E0B93
:101AD00086E790E00E945F0B81E060E00E943E0B91
:101AE00081E890E00E945F0BCE0189579F4FC4545C
:101AF000DF4F99838883CC5BD0408BED90E0C2545C
:101B0000DF4F99838883CE5BD04098E0C054DF4F8D
:101B10009883C05CD040C254DF4FA881B981CE5BAE
:101B2000D0400C90C254DF4FE881F981CE5BD040A9
:101B30003196C254DF4FF983E883CE5BD040C45462
:101B4000DF4FA881B981CC5BD0400C92C454DF4FE9
:101B5000E881F981CC5BD0403196C454DF4FF983E2
:101B6000E883CC5BD040C054DF4FF881C05CD040EC
:101B7000F150C054DF4FF883C05CD040C054DF4FF9
:101B80008881C05CD040882331F6CE0181579F4FB9
:101B9000CF53DF4F99838883C15CD040A3EDB0E081
:101BA000CD53DF4FB983A883C35CD040B8E0CB539B
:101BB000DF4FB883C55CD040CD53DF4FE881F9815A
:101BC000C35CD0400080CD53DF4F88819981C35CD6
:101BD000D0400196CD53DF4F99838883C35CD040BA
:101BE000CF53DF4FA881B981C15CD0400C92CF5355
:101BF000DF4FE881F981C15CD0403196CF53DF4F90
:101C0000F983E883C15CD040CB53DF4FF881C55CDA
:101C1000D040F150CB53DF4FF883C55CD040CB535D
:101C2000DF4F8881C55CD040882331F6CE018957CB
:101C30009F4F60E041E02DE00E94F40BCE01815700
:101C40009F4F61E041E02CE00E94F40BFE01E3595C
:101C5000FF4F80E090E0AAEFB4E480839183A283F9
:101C6000B3838E0107591F4FFE01E359FF4F608177
:101C700071818281938120E030E048E453E40E9446
:101C80001702DC01CB01F80180839183A283B38327
:101C9000FE01E759FF4F608171818281938120E0CD
:101CA00030E040E85FE30E947103882344F4FE01C2
:101CB000E959FF4F81E090E09183808364C0FE0189
:101CC000E759FF4F608171818281938120E03FEF6E
:101CD0004FE757E40E94110318160CF043C0FE01B1
:101CE000E359FF4F608171818281938120E030E070
:101CF00040E251E40E941702DC01CB018E01095938
:101D00001F4FBC01CD010E944100DC01CB01F80155
:101D1000918380831FC0FE01EB59FF4F84E190E067
:101D200091838083FE01EB59FF4F80819181019760
:101D3000F1F7FE01EB59FF4F91838083DE01A95932
:101D4000BF4FFE01E959FF4F8081918101971196A4
:101D50009C938E93FE01E959FF4F808191810097FA
:101D6000D1F627C08E0109591F4FFE01E759FF4FD9
:101D700060817181828193810E944100DC01CB01ED
:101D8000F80191838083DE01AD59BF4FFE01E9590F
:101D9000FF4F808191818D939C93FE01ED59FF4F00
:101DA000808191810197F1F7FE01ED59FF4F9183F9
:101DB00080830E94340B80E060E00E943E0B8DE83F
:101DC00090E00E945F0B81E060E00E943E0B88E99A
:101DD00090E00E945F0BCE0189569F4FCA53DF4FA0
:101DE00099838883C65CD0408BEC90E0C853DF4F6A
:101DF00099838883C85CD04098E0C653DF4F9883AE
:101E0000CA5CD040C853DF4FA881B981C85CD040BC
:101E10000C90C853DF4FE881F981C85CD0403196FF
:101E2000C853DF4FF983E883C85CD040CA53DF4F03
:101E3000A881B981C65CD0400C92CA53DF4FE881BB
:101E4000F981C65CD0403196CA53DF4FF983E883ED
:101E5000C65CD040C653DF4FF881CA5CD040F15019
:101E6000C653DF4FF883CA5CD040C653DF4F88812A
:101E7000CA5CD040882331F6CE0181569F4FC553AE
:101E8000DF4F99838883CB5CD040A3ECB0E0C35391
:101E9000DF4FB983A883CD5CD040B8E0C153DF4F9A
:101EA000B883CF5CD040C353DF4FE881F981CD5C6C
:101EB000D0400080C353DF4F88819981CD5CD040F2
:101EC0000196C353DF4F99838883CD5CD040C553BF
:101ED000DF4FA881B981CB5CD0400C92C553DF4F56
:101EE000E881F981CB5CD0403196C553DF4FF9834F
:101EF000E883CB5CD040C153DF4FF881CF5CD0404A
:101F0000F150C153DF4FF883CF5CD040C153DF4F56
:101F10008881CF5CD040882331F6CE0189569F4F0F
:101F200060E040E02DE00E94F40BCE0189569F4F07
:101F300061E040E02BE00E94F40BCE0181569F4F00
:101F400063E041E02CE00E94F40BFE01E15AFF4FF8
:101F500080E090E0AAEFB4E480839183A283B3830E
:101F60008E01055A1F4FFE01E15AFF4F60817181BA
:101F70008281938120E030E048E453E40E9417021C
:101F8000DC01CB01F80180839183A283B383FE013E
:101F9000E55AFF4F608171818281938120E030E0BA
:101FA00040E85FE30E947103882344F4FE01E75A8E
:101FB000FF4F81E090E09183808364C0FE01E55A89
:101FC000FF4F608171818281938120E03FEF4FE775
:101FD00057E40E94110318160CF043C0FE01E15AA9
:101FE000FF4F608171818281938120E030E040E287
:101FF00051E40E941702DC01CB018E01075A1F4FEA
:10200000BC01CD010E944100DC01CB01F8019183AC
:1020100080831FC0FE01E95AFF4F84E190E0918365
:102020008083FE01E95AFF4F808191810197F1F78A
:10203000FE01E95AFF4F91838083DE01A75ABF4F0B
:10204000FE01E75AFF4F80819181019711969C9381
:102050008E93FE01E75AFF4F808191810097D1F660
:1020600027C08E01075A1F4FFE01E55AFF4F6081BE
:102070007181828193810E944100DC01CB01F801D2
:1020800091838083DE01AB5ABF4FFE01E75AFF4FB9
:10209000808191818D939C93FE01EB5AFF4F80814B
:1020A00091810197F1F7FE01EB5AFF4F91838083F5
:1020B0000E94340BCE0189559F4FC053DF4F998347
:1020C0008883C05DD0408BEB90E0CE52DF4F998388
:1020D0008883C25DD04098E0CC52DF4F9883C45DC6
:1020E000D040CE52DF4FA881B981C25DD0400C9064
:1020F000CE52DF4FE881F981C25DD0403196CE5299
:10210000DF4FF983E883C25DD040C053DF4FA88121
:10211000B981C05DD0400C92C053DF4FE881F98196
:10212000C05DD0403196C053DF4FF983E883C05D76
:10213000D040CC52DF4FF881C45DD040F150CC523A
:10214000DF4FF883C45DD040CC52DF4F8881C45D3F
:10215000D040882331F6CE0181559F4F28E0FC0105
:10216000DF01822F1D928A95E9F7FE01E155FF4FAD
:102170008FE18183CE0189559F4F60E040E020E0F0
:102180000E94F40BCE0181559F4F61E040E021E0B9
:102190000E94F40BFE01EF5AFF4F80E090E0A8ECA4
:1021A000B2E480839183A283B3838E01035B1F4FCC
:1021B000FE01EF5AFF4F608171818281938120E09F
:1021C00030E048E453E40E941702DC01CB01F8013F
:1021D00080839183A283B383FE01E35BFF4F608121
:1021E00071818281938120E030E040E85FE30E94CA
:1021F0007103882344F4FE01E55BFF4F81E090E02A
:102200009183808364C0FE01E35BFF4F6081718135
:102210008281938120E03FEF4FE757E40E94110352
:1022200018160CF043C0FE01EF5AFF4F6081718118
:102230008281938120E030E040E251E40E94170265
:10224000DC01CB018E01055B1F4FBC01CD010E945B
:102250004100DC01CB01F801918380831FC0FE01A6
:10226000E75BFF4F84E190E091838083FE01E75BB1
:10227000FF4F808191810197F1F7FE01E75BFF4FEE
:1022800091838083DE01A55BBF4FFE01E55BFF4FBD
:1022900080819181019711969C938E93FE01E55B5D
:1022A000FF4F808191810097D1F627C08E01055B99
:1022B0001F4FFE01E35BFF4F60817181828193813B
:1022C0000E944100DC01CB01F80191838083DE0193
:1022D000A95BBF4FFE01E55BFF4F808191818D932C
:1022E0009C93FE01E95BFF4F808191810197F1F79B
:1022F000FE01E95BFF4F91838083CE0181559F4FA3
:1023000061E040E022E00E94F40BFE01ED5BFF4F34
:1023100080E090E0A8ECB2E480839183A283B38351
:102320008E01015C1F4FFE01ED5BFF4F60817181EB
:102330008281938120E030E048E453E40E94170258
:10234000DC01CB01F80180839183A283B383FE017A
:10235000FF96608171818281938120E030E040E8C6
:102360005FE30E94710388232CF481E090E09EAF2C
:102370008DAF46C0FE01FF9660817181828193819D
:1023800020E03FEF4FE757E40E941103181664F571
:10239000FE01ED5BFF4F608171818281938120E0BE
:1023A00030E040E251E40E941702DC01CB01BC01A5
:1023B000CD010E944100DC01CB019EAF8DAF0FC06B
:1023C00084E190E09CAF8BAF8BAD9CAD0197F1F7B2
:1023D0009CAF8BAF8DAD9EAD01979EAF8DAF8DAD98
:1023E0009EAD009769F716C0FE01FF96608171816E
:1023F000828193810E944100DC01CB019EAF8DAFB1
:102400008DAD9EAD9AAF89AF89AD9AAD0197F1F7C9
:102410009AAF89AFCE0181559F4F61E040E023E044
:102420000E94F40B80E090E0A8ECB2E48DAB9EAB90
:10243000AFABB8AF6DA97EA98FA998AD20E030E011
:1024400048E453E40E941702DC01CB0189AB9AAB4C
:10245000ABABBCAB69A97AA98BA99CA920E030E001
:1024600040E85FE30E94710388232CF481E090E050
:1024700098AB8FA73FC069A97AA98BA99CA920E036
:102480003FEF4FE757E40E94110318164CF56DA972
:102490007EA98FA998AD20E030E040E251E40E948F
:1024A0001702DC01CB01BC01CD010E944100DC011F
:1024B000CB0198AB8FA70FC084E190E09EA78DA7BA
:1024C0008DA59EA50197F1F79EA78DA78FA598A929
:1024D000019798AB8FA78FA598A9009769F714C0AB
:1024E00069A97AA98BA99CA90E944100DC01CB01B2
:1024F00098AB8FA78FA598A99CA78BA78BA59CA508
:102500000197F1F79CA78BA7CE0181559F4F61E002
:1025100040E024E00E94F40B80E090E0A8ECB2E4FC
:102520008FA398A7A9A7BAA76FA178A589A59AA5EF
:1025300020E030E048E453E40E941702DC01CB01C4
:102540008BA39CA3ADA3BEA36BA17CA18DA19EA1D7
:1025500020E030E040E85FE30E94710388232CF420
:1025600081E090E09AA389A33FC06BA17CA18DA1DB
:102570009EA120E03FEF4FE757E40E941103181699
:102580004CF56FA178A589A59AA520E030E040E23E
:1025900051E40E941702DC01CB01BC01CD010E9475
:1025A0004100DC01CB019AA389A30FC084E190E034
:1025B00098A38F8F8F8D98A10197F1F798A38F8F94
:1025C00089A19AA101979AA389A389A19AA10097A9
:1025D00069F714C06BA17CA18DA19EA10E9441004E
:1025E000DC01CB019AA389A389A19AA19E8F8D8F2B
:1025F0008D8D9E8D0197F1F79E8F8D8FCE01815528
:102600009F4F61E040E025E00E94F40B80E090E005
:10261000A8ECB2E4898F9A8FAB8FBC8F698D7A8DCD
:102620008B8D9C8D20E030E048E453E40E9417023B
:10263000DC01CB018D8B9E8BAF8BB88F6D897E8932
:102640008F89988D20E030E040E85FE30E947103BD
:1026500088232CF481E090E09C8B8B8B3FC06D89AC
:102660007E898F89988D20E03FEF4FE757E40E94E5
:10267000110318164CF5698D7A8D8B8D9C8D20E099
:1026800030E040E251E40E941702DC01CB01BC01C2
:10269000CD010E944100DC01CB019C8B8B8B0FC0D4
:1026A00084E190E09A8B898B89899A890197F1F767
:1026B0009A8B898B8B899C8901979C8B8B8B8B89BF
:1026C0009C89009769F714C06D897E898F89988DE0
:1026D0000E944100DC01CB019C8B8B8B8B899C89F8
:1026E000988B8F878F8598890197F1F7988B8F87C3
:1026F00080E066E00E943E0B82EA90E00E945F0B61
:1027000081E066E00E943E0B8DEA90E00E945F0B44
:10271000CE0181589F4F62E041E02EE00E94F40B11
:1027200080E090E0AAE7B4E48B879C87AD87BE8702
:102730006B857C858D859E8520E030E048E453E400
:102740000E941702DC01CB018F839887A987BA8783
:102750006F81788589859A8520E030E040E85FE3E5
:102760000E94710388232CF481E090E09E838D8386
:102770003FC06F81788589859A8520E03FEF4FE7DC
:1027800057E40E94110318164CF56B857C858D85E6
:102790009E8520E030E040E251E40E941702DC0117
:1027A000CB01BC01CD010E944100DC01CB019E8325
:1027B0008D830FC084E190E09C838B838B819C810F
:1027C0000197F1F79C838B838D819E8101979E8376
:1027D0008D838D819E81009769F714C06F81788504
:1027E00089859A850E944100DC01CB019E838D83FF
:1027F0008D819E819A83898389819A810197F1F7DE
:102800009A83898380E090E0CC52DF4F0FB6F89432
:10281000DEBF0FBECDBFCF91DF911F910F91089505
:10282000A1E21A2EAA1BBB1BFD010DC0AA1FBB1FD4
:10283000EE1FFF1FA217B307E407F50720F0A21B46
:10284000B30BE40BF50B661F771F881F991F1A94B3
:1028500069F760957095809590959B01AC01BD01DD
:10286000CF0108952F923F924F925F926F927F9285
:102870008F929F92AF92BF92CF92DF92EF92FF9290
:102880000F931F93CF93DF93CDB7DEB7CA1BDB0B3C
:102890000FB6F894DEBF0FBECDBF09942A883988E1
:1028A00048885F846E847D848C849B84AA84B984E8
:1028B000C884DF80EE80FD800C811B81AA81B981F4
:1028C000CE0FD11D0FB6F894DEBF0FBECDBFED0108
:0628D0000895F894FFCF0B
:1028D6004D79206E616D65206973005A6133626FB0
:1028E600756C61203A00492063616E20506C6179F5
:1028F6000020466F6F7462616C6C203A004C657400
:10290600277320706C61790020412067616D652016
:102916003A00446F6E2774204B696C6C00206D651D
:10292600203A000000000000000000001F181418E4
:1029360010000000000011111F1F000E11001F11D2
:10294600111F00000000000E0E0E00070702070A06
:0C295600060A120E0E040E15040E1100ED
:00000001FF
