:100000000C942A000C943F000C943F000C943F0089
:100010000C943F000C943F000C943F000C943F0064
:100020000C943F000C943F000C943F000C943F0054
:100030000C943F000C943F000C943F000C943F0044
:100040000C943F000C943F000C943F000C943F0034
:100050000C943F0011241FBECFE5D8E0DEBFCDBF1A
:1000600010E0A0E6B0E0E0EBF5E302C005900D92F1
:10007000A836B107D9F70E946B0A0C94D61A0C94D3
:100080000000EF92FF920F931F937B018C0120E001
:1000900030E040E05FE40E94410388238CF0C80117
:1000A000B70120E030E040E05FE40E94B9010E9427
:1000B000A1039B01AC01205030404040504806C095
:1000C000C801B7010E94A1039B01AC01B901CA019B
:1000D0001F910F91FF90EF900895A0E0B0E0E3E74B
:1000E000F0E00C949F1ADC012B01FA019C919230F4
:1000F00008F439C1EB018881823008F433C19430AF
:1001000069F4843009F02FC111969C91119789816F
:10011000981709F428C1A0E6B0E025C1843009F49D
:1001200021C18230A9F4923009F01DC19A01AD01BC
:1001300088E0EA010990AE01E90109929E0181502F
:10014000C1F7E201898111969C918923818308C1BD
:10015000923009F407C112962D903C901397EB0151
:100160008A819B811496AD90BD90CD90DC901797BD
:10017000EC80FD800E811F819101281B390BB90194
:1001800037FF04C066277727621B730B6032710547
:100190000CF061C0121613066CF537014801062EEB
:1001A00004C096948794779467940A94D2F721E0D8
:1001B00030E040E050E004C0220F331F441F551FC1
:1001C0006A95D2F721503040404050402E213F21C7
:1001D00040235123211531054105510521F021E02E
:1001E00030E040E050E079018A01E628F72808294C
:1001F00019293CC0232BD1F1260E371E35014601AB
:10020000062E04C096948794779467940A94D2F744
:1002100021E030E040E050E004C0220F331F441FD3
:10022000551F6A95D2F721503040404050402A2156
:100230003B214C215D21211531054105510521F05E
:1002400021E030E040E050E059016A01A628B728DB
:10025000C828D9280BC0821593052CF01C01AA24AC
:10026000BB24650103C0EE24FF24870111969C91F5
:10027000D20111968C91981709F445C0992339F051
:10028000A80197012A193B094C095D0906C0A6017E
:1002900095012E193F09400B510B57FD08C01182E3
:1002A0003382228224833583468357831DC081E0B5
:1002B00081833382228288279927DC01821B930B5A
:1002C000A40BB50B84839583A683B7830DC0220F3F
:1002D000331F441F551F24833583468357838281F0
:1002E000938101979383828324813581468157814D
:1002F000DA01C9010197A109B1098F5F9F4FAF4F83
:10030000BF4328F30BC0918333822282EA0CFB1C8B
:100310000C1D1D1DE482F5820683178383E0808314
:10032000248135814681578157FF1AC0C901AA2708
:1003300097FDA095BA2F81709070A070B0705695FF
:10034000479537952795822B932BA42BB52B848328
:100350009583A683B7838281938101969383828359
:10036000DF0101C0D201CD01CDB7DEB7E2E10C94CF
:10037000BB1AA0E2B0E0EFEBF1E00C94AB1A69839A
:100380007A838B839C832D833E834F835887E9E058
:10039000EE2EF12CEC0EFD1ECE010196B7010E944F
:1003A000CA048E010F5E1F4FCE010596B8010E9450
:1003B000CA048A8991E089278A8BC701B801AE01F6
:1003C000475E5F4F0E946D000E94F503A096E6E035
:1003D0000C94C71AA0E2B0E0E0EFF1E00C94AB1A85
:1003E00069837A838B839C832D833E834F835887D5
:1003F000F9E0EF2EF12CEC0EFD1ECE010196B701B7
:100400000E94CA048E010F5E1F4FCE010596B801EF
:100410000E94CA04C701B801AE01475E5F4F0E9447
:100420006D000E94F503A096E6E00C94C71AA0E2C6
:10043000B0E0EDE1F2E00C949F1A69837A838B833C
:100440009C832D833E834F835887CE010196BE0146
:10045000675F7F4F0E94CA04CE010596BE016F5EA2
:100460007F4F0E94CA049985923088F08989823032
:10047000C8F0943019F4823051F404C0843029F467
:10048000923081F480E690E0C6C0923049F420E0DA
:100490009A858A89981321E02A87CE010996BBC0E4
:1004A000823049F420E09A858A89981321E02A8BCA
:1004B000CE014196B0C02D843E844F8458886D880B
:1004C0007E888F88988CEE24FF248701AA24BB2481
:1004D000650140E050E060E070E0E0E0F0E0C10184
:1004E00081709070892BE9F0E60CF71C081D191D2E
:1004F0009A01AB012A0D3B1D4C1D5D1D80E090E073
:10050000A0E0B0E0E614F7040805190520F481E046
:1005100090E0A0E0B0E0BA01A901480F591F6A1F9E
:100520007B1FAA0CBB1CCC1CDD1C97FE08C081E005
:1005300090E0A0E0B0E0A82AB92ACA2ADB2A3196C6
:10054000E032F10549F0660C771C881C991C569422
:10055000479437942794C3CFFA85EA892B893C893D
:100560008B859C85280F391F2E5F3F4F17C0CA010E
:1005700081709070892B61F016950795F794E79438
:1005800080E090E0A0E0B0E8E82AF92A0A2B1B2BD3
:1005900076956795579547952F5F3F4F77FDE7CF46
:1005A0000CC0440F551F661F771F17FD4160EE0CEE
:1005B000FF1C001F111F21503040403090E05907B0
:1005C00090E0690790E4790760F32B8F3C8FDB01A3
:1005D000CA018F779070A070B07080349105A1052A
:1005E000B10561F447FD0AC0E114F10401051105EC
:1005F00029F0405C5F4F6F4F7F4F40781A8EFE1797
:1006000011F081E08A8F4D8F5E8F6F8F78A383E02A
:10061000898FCE0149960E94F503A096E2E10C94E1
:10062000BB1AA8E1B0E0E7E1F3E00C94AB1A6983F0
:100630007A838B839C832D833E834F83588789E005
:10064000E82EF12CEC0EFD1ECE010196B7010E94A2
:10065000CA048E010F5E1F4FCE010596B8010E949D
:10066000CA048985823040F08989823028F0C70128
:10067000B8010E94420501C08FEF6896E6E00C9435
:10068000C71AA8E1B0E0E7E4F3E00C94AB1A698381
:100690007A838B839C832D833E834F83588789E0A5
:1006A000E82EF12CEC0EFD1ECE010196B7010E9442
:1006B000CA048E010F5E1F4FCE010596B8010E943D
:1006C000CA048985823040F08989823028F0C701C8
:1006D000B8010E94420501C08FEF6896E6E00C94D5
:1006E000C71AA8E1B0E0E7E7F3E00C94AB1A69831E
:1006F0007A838B839C832D833E834F83588789E045
:10070000E82EF12CEC0EFD1ECE010196B7010E94E1
:10071000CA048E010F5E1F4FCE010596B8010E94DC
:10072000CA048985823040F08989823028F0C70167
:10073000B8010E94420501C081E06896E6E00C9491
:10074000C71AACE0B0E0E7EAF3E00C94AF1A6983B3
:100750007A838B839C83CE010196BE016B5F7F4FB2
:100760000E94CA048D81823061F1823050F1843060
:1007700021F48E81882351F12EC02F81388537FDD9
:1007800020C06E812F3131051CF06623F9F023C0A3
:100790008EE190E0821B930B29853A854B855C8521
:1007A00004C056954795379527958A95D2F76623C5
:1007B000B1F050954095309521953F4F4F4F5F4F89
:1007C0000EC020E030E040E050E009C02FEF3FEFE6
:1007D0004FEF5FE704C020E030E040E050E8B901AF
:1007E000CA012C96E2E00C94CB1ADF92EF92FF92B2
:1007F0000F931F93FC01E480F58006811781D1805F
:100800008081823048F480E090E0A0E1B0E0E82A06
:10081000F92A0A2B1B2BA5C0843009F49FC0823013
:1008200021F4EE24FF24870105C0E114F104010541
:10083000110519F4E0E0F0E096C0628173819FEF4A
:10084000623879070CF05BC022E83FEF261B370BBC
:100850002A3131052CF020E030E040E050E02AC0A1
:10086000B801A701022E04C0769567955795479564
:100870000A94D2F781E090E0A0E0B0E004C0880FD5
:10088000991FAA1FBB1F2A95D2F70197A109B10989
:100890008E219F21A023B1230097A105B10521F04E
:1008A00081E090E0A0E0B0E09A01AB01282B392B69
:1008B0004A2B5B2BDA01C9018F779070A070B07062
:1008C00080349105A105B10539F427FF09C0205CEA
:1008D0003F4F4F4F5F4F04C0215C3F4F4F4F5F4F23
:1008E000E0E0F0E02030A0E03A07A0E04A07A0E412
:1008F0005A0710F0E1E0F0E079018A0127C0603882
:10090000710564F5FB01E158FF4FD801C7018F77EE
:100910009070A070B07080349105A105B10539F4D4
:10092000E7FE0DC080E490E0A0E0B0E004C08FE3FB
:1009300090E0A0E0B0E0E80EF91E0A1F1B1F17FFB1
:1009400005C016950795F794E794319687E01695BC
:100950000795F794E7948A95D1F705C0EE24FF2414
:100960008701EFEFF0E06E2F679566276795902F70
:100970009F77D794DD24D7948E2F8695492F462BC9
:10098000582F5D29B701CA011F910F91FF90EF9079
:10099000DF900895FC01DB01408151812281622FAB
:1009A0006F7770E0221F2227221F9381892F880FE3
:1009B000822B282F30E0991F9927991F11969C931D
:1009C000119721153105A9F54115510561057105ED
:1009D00011F482E037C082E89FEF13969C938E93C8
:1009E00012979A01AB0167E0220F331F441F551F76
:1009F0006A95D1F783E08C930DC0220F331F441FFB
:100A0000551F12968D919C911397019713969C9365
:100A10008E931297203080E0380780E0480780E40A
:100A2000580758F314962D933D934D935C93179765
:100A300008952F3F310579F4411551056105710580
:100A400019F484E08C93089564FF03C081E08C93D3
:100A500012C01C9210C02F57304013963C932E9317
:100A6000129783E08C9387E0440F551F661F771F12
:100A70008A95D1F7706414964D935D936D937C9332
:100A8000179708951F93DC01FB019C91923008F4A5
:100A900047C08081823008F443C0943051F41196ED
:100AA0001C91843099F58181682F70E0611B710978
:100AB0003FC0843021F0923031F48230B9F181812D
:100AC000882389F12DC011961C9111978230F1F085
:100AD00081811817D9F412962D913C911397828138
:100AE00093818217930794F028173907BCF0149666
:100AF0008D919D910D90BC91A02D248135814681D1
:100B00005781281739074A075B0718F4112341F06A
:100B10000AC082179307A407B50740F4112319F000
:100B200061E070E005C06FEF7FEF02C060E070E051
:100B3000CB011F910895DF93CF93CDB7DEB72E97EA
:100B40000FB6F894DEBF0FBECDBF8A836B834C8394
:100B500081E089838A81282F30E03E872D878D852B
:100B60009E858130910509F451C02D853E85223046
:100B700031052CF48D859E85009771F0F5C02D858B
:100B80003E852230310509F47BC08D859E858330FA
:100B9000910509F4AFC0E8C08C81282F30E03C8774
:100BA0002B878B859C85009731F02B853C852130E8
:100BB0003105B1F029C0AAE3B0E0EAE3F0E08081BA
:100BC000482F8B81282F30E081E090E0022E02C078
:100BD000880F991F0A94E2F7809584238C93C5C0EF
:100BE000AAE3B0E0EAE3F0E08081482F8B81282F70
:100BF00030E081E090E0022E02C0880F991F0A9435
:100C0000E2F7842B8C93B1C01982AFC08C81282F5E
:100C100030E03A87298789859A85009731F02985C0
:100C20003A8521303105B1F029C0A7E3B0E0E7E310
:100C3000F0E08081482F8B81282F30E081E090E028
:100C4000022E02C0880F991F0A94E2F78095842330
:100C50008C938BC0A7E3B0E0E7E3F0E08081482FFE
:100C60008B81282F30E081E090E0022E02C0880FB7
:100C7000991F0A94E2F7842B8C9377C0198275C070
:100C80008C81282F30E038872F838F8198850097BB
:100C900031F02F81388521303105B1F029C0A4E32E
:100CA000B0E0E4E3F0E08081482F8B81282F30E032
:100CB00081E090E0022E02C0880F991F0A94E2F7AB
:100CC000809584238C9351C0A4E3B0E0E4E3F0E08A
:100CD0008081482F8B81282F30E081E090E0022E28
:100CE00002C0880F991F0A94E2F7842B8C933DC0B1
:100CF00019823BC08C81282F30E03E832D838D816B
:100D00009E81009731F02D813E8121303105B1F077
:100D100029C0A1E3B0E0E1E3F0E08081482F8B81BE
:100D2000282F30E081E090E0022E02C0880F991F4A
:100D30000A94E2F7809584238C9317C0A1E3B0E076
:100D4000E1E3F0E08081482F8B81282F30E081E0C3
:100D500090E0022E02C0880F991F0A94E2F7842BBC
:100D60008C9303C0198201C0198289812E960FB617
:100D7000F894DEBF0FBECDBFCF91DF910895DF9312
:100D8000CF93CDB7DEB72E970FB6F894DEBF0FBE68
:100D9000CDBF8A836B834C8381E089838A81282F2E
:100DA00030E03E872D878D859E858130910509F441
:100DB00051C02D853E85223031052CF48D859E85D0
:100DC000009771F0F5C02D853E852230310509F47C
:100DD0007BC08D859E858330910509F4AFC0E8C046
:100DE0008C81282F30E03C872B878B859C85009752
:100DF00031F02B853C8521303105B1F029C0ABE3C2
:100E0000B0E0EBE3F0E08081482F8B81282F30E0C9
:100E100081E090E0022E02C0880F991F0A94E2F749
:100E2000809584238C93C5C0ABE3B0E0EBE3F0E0A6
:100E30008081482F8B81282F30E081E090E0022EC6
:100E400002C0880F991F0A94E2F7842B8C93B1C0DB
:100E50001982AFC08C81282F30E03A872987898595
:100E60009A85009731F029853A8521303105B1F016
:100E700029C0A8E3B0E0E8E3F0E08081482F8B814F
:100E8000282F30E081E090E0022E02C0880F991FE9
:100E90000A94E2F7809584238C938BC0A8E3B0E09A
:100EA000E8E3F0E08081482F8B81282F30E081E05B
:100EB00090E0022E02C0880F991F0A94E2F7842B5B
:100EC0008C9377C0198275C08C81282F30E03887C9
:100ED0002F838F819885009731F02F8138852130BD
:100EE0003105B1F029C0A5E3B0E0E5E3F0E0808191
:100EF000482F8B81282F30E081E090E0022E02C045
:100F0000880F991F0A94E2F7809584238C9351C02F
:100F1000A5E3B0E0E5E3F0E08081482F8B81282F46
:100F200030E081E090E0022E02C0880F991F0A9401
:100F3000E2F7842B8C933DC019823BC08C81282F13
:100F400030E03E832D838D819E81009731F02D818D
:100F50003E8121303105B1F029C0A2E3B0E0E2E3E7
:100F6000F0E08081482F8B81282F30E081E090E0F5
:100F7000022E02C0880F991F0A94E2F780958423FD
:100F80008C9317C0A2E3B0E0E2E3F0E08081482F49
:100F90008B81282F30E081E090E0022E02C0880F84
:100FA000991F0A94E2F7842B8C9303C0198201C025
:100FB000198289812E960FB6F894DEBF0FBECDBF81
:100FC000CF91DF910895DF93CF93CDB7DEB7279709
:100FD0000FB6F894DEBF0FBECDBF8B836C8381E06C
:100FE0008A838B81282F30E03F832E834E815F815F
:100FF0004130510541F18E819F818230910534F459
:101000002E813F812115310561F053C04E815F81F2
:101010004230510551F18E819F8183309105B9F1A4
:1010200048C0E9E3F0E08081282F30E08C81882FF0
:1010300090E0A90102C0559547958A95E2F7CA014B
:101040008170898337C0E6E3F0E08081282F30E0AB
:101050008C81882F90E0A90102C0559547958A950B
:10106000E2F7CA018170898325C0E3E3F0E0808163
:10107000282F30E08C81882F90E0A90102C055957F
:1010800047958A95E2F7CA018170898313C0E0E32E
:10109000F0E08081282F30E08C81882F90E0A9013A
:1010A00002C0559547958A95E2F7CA0181708983F8
:1010B00001C01A828A81813019F459815D8303C08D
:1010C0001A828A818D838D8127960FB6F894DEBFB0
:1010D0000FBECDBFCF91DF910895DF93CF9300D0A6
:1010E00000D00F92CDB7DEB78A836B8381E089830E
:1010F0008A81282F30E03D832C838C819D81813033
:101100009105D1F02C813D81223031052CF48C8168
:101110009D81009761F01FC02C813D8122303105F7
:1011200081F08C819D818330910581F014C0EAE3C8
:10113000F0E08B81808310C0E7E3F0E08B81808357
:101140000BC0E4E3F0E08B81808306C0E1E3F0E0D4
:101150008B81808301C0198289810F900F900F903D
:101160000F900F90CF91DF910895DF93CF9300D030
:1011700000D00F92CDB7DEB78A836B8381E089837D
:101180008A81282F30E03D832C838C819D818130A2
:101190009105D1F02C813D81223031052CF48C81D8
:1011A0009D81009761F01FC02C813D812230310567
:1011B00081F08C819D818330910581F014C0EBE337
:1011C000F0E08B81808310C0E8E3F0E08B818083C6
:1011D0000BC0E5E3F0E08B81808306C0E2E3F0E042
:1011E0008B81808301C0198289810F900F900F90AD
:1011F0000F900F90CF91DF910895DF93CF9300D0A0
:1012000000D000D0CDB7DEB78B8381E08A838B819D
:10121000282F30E03E832D838D819E818130910582
:10122000D1F02D813E81223031052CF48D819E81BB
:10123000009761F01FC02D813E812230310581F081
:101240008D819E818330910581F014C0E9E3F0E047
:101250008081898310C0E6E3F0E0808189830BC040
:10126000E3E3F0E08081898306C0E0E3F0E0808181
:10127000898301C01A828A81813019F499819C8303
:1012800002C02A812C838C8126960FB6F894DEBF8B
:101290000FBECDBFCF91DF910895DF93CF9300D0E4
:1012A000CDB7DEB78A838A810E94FD088983898150
:1012B000809589838A8169810E94B5080F900F907B
:1012C000CF91DF910895DF93CF9300D0CDB7DEB7F4
:1012D0009A838983E981FA818081E981FA81918108
:1012E000692F41E00E949B050F900F90CF91DF91F5
:1012F0000895DF93CF9300D0CDB7DEB79A8389836B
:10130000E981FA818081E981FA819181692F41E047
:101310000E94BF060F900F90CF91DF910895DF9349
:10132000CF9300D0CDB7DEB79A838983E981FA8164
:101330008081E981FA819181692F40E00E94BF0696
:101340000F900F90CF91DF910895DF93CF9300D04E
:10135000CDB7DEB79A838983E981FA8180816FEF07
:101360000E946D080F900F90CF91DF910895DF9349
:10137000CF9300D0CDB7DEB79A838983E981FA8114
:1013800080816FE30E94B5080F900F90CF91DF919D
:101390000895DF93CF9300D0CDB7DEB79A838983CA
:1013A000E981FA81808166E00E94B5080F900F9074
:1013B000CF91DF910895DF93CF9300D0CDB7DEB703
:1013C0009A838983E981FA8180816BE50E94B5085F
:1013D0000F900F90CF91DF910895DF93CF9300D0BE
:1013E000CDB7DEB79A838983E981FA8180816FE482
:1013F0000E94B5080F900F90CF91DF910895DF9371
:10140000CF9300D0CDB7DEB79A838983E981FA8183
:10141000808166E60E94B5080F900F90CF91DF9112
:101420000895DF93CF9300D0CDB7DEB79A83898339
:10143000E981FA8180816DE60E94B5080F900F90D6
:10144000CF91DF910895DF93CF9300D0CDB7DEB772
:101450009A838983E981FA8180816DE70E94B508CA
:101460000F900F90CF91DF910895DF93CF9300D02D
:10147000CDB7DEB79A838983E981FA81808167E0FD
:101480000E94B5080F900F90CF91DF910895DF93E0
:10149000CF9300D0CDB7DEB79A838983E981FA81F3
:1014A00080816FE70E94B5080F900F90CF91DF9178
:1014B0000895DF93CF9300D0CDB7DEB79A838983A9
:1014C000E981FA8180816FE60E94B5080F900F9044
:1014D000CF91DF9108950F931F93DF93CF93CDB7F3
:1014E000DEB7CA54D1400FB6F894DEBF0FBECDBFF1
:1014F000FE01ED5BFE4F1082FE01ED5BFE4F11829F
:10150000FE01EB5BFE4F1082FE01EB5BFE4F81E0C4
:101510008183FE01E95BFE4F1082FE01E95BFE4F15
:1015200082E08183CE018D5B9E4F0E946309CE01D4
:101530008B5B9E4F0E946309CE01895B9E4F0E9488
:101540006309FE01E75BFE4F81E08083FE01E65BFD
:10155000FE4F83E08083CE01875B9E4F0E94A509EA
:10156000CE01865B9E4F0E94A509CE01895B9E4FEE
:101570000E948F09CE018D5B9E4F0E947909CE019A
:10158000875B9E4F0E94C909CE01865B9E4F0E94D9
:10159000B709FE01E15CFE4F80E090E0AAE7B4E409
:1015A00080839183A283B3838E01055C1E4FFE016D
:1015B000E15CFE4F608171818281938120E030E0A7
:1015C00048E453E40E941702DC01CB01F801808358
:1015D0009183A283B383FE01E55CFE4F608171813C
:1015E0008281938120E030E040E85FE30E94710354
:1015F000882344F4FE01E75CFE4F81E090E0918394
:10160000808364C0FE01E55CFE4F60817181828150
:10161000938120E03FEF4FE757E40E941103181633
:101620000CF043C0FE01E15CFE4F6081718182815C
:10163000938120E030E040E251E40E941702DC0197
:10164000CB018E01075C1E4FBC01CD010E94410001
:10165000DC01CB01F801918380831FC0FE01E95CAE
:10166000FE4F84E190E091838083FE01E95CFE4FB0
:10167000808191810197F1F7FE01E95CFE4F918332
:101680008083DE01A75CBE4FFE01E75CFE4F8081D8
:101690009181019711969C938E93FE01E75CFE4F1A
:1016A000808191810097D1F627C08E01075C1E4F83
:1016B000FE01E55CFE4F60817181828193810E9411
:1016C0004100DC01CB01F80191838083DE01AB5C3A
:1016D000BE4FFE01E75CFE4F808191818D939C930C
:1016E000FE01EB5CFE4F808191810197F1F7FE01D5
:1016F000EB5CFE4F91838083CE01875B9E4F0E94FF
:10170000B709CE01865B9E4F0E94590AFE01EF5C2D
:10171000FE4F80E090E0AAE7B4E480839183A28347
:10172000B3838E01035D1E4FFE01EF5CFE4F6081AF
:1017300071818281938120E030E048E453E40E948B
:101740001702DC01CB01F80180839183A283B3836C
:10175000FE01E35DFE4F608171818281938120E013
:1017600030E040E85FE30E947103882344F4FE0107
:10177000E55DFE4F81E090E09183808364C0FE01CF
:10178000E35DFE4F608171818281938120E03FEFB4
:101790004FE757E40E94110318160CF043C0FE01F6
:1017A000EF5CFE4F608171818281938120E030E0A7
:1017B00040E251E40E941702DC01CB018E01055D7D
:1017C0001E4FBC01CD010E944100DC01CB01F8019C
:1017D000918380831FC0FE01E75DFE4F84E190E0AE
:1017E00091838083FE01E75DFE4F808191810197A7
:1017F000F1F7FE01E75DFE4F91838083DE01A55D79
:10180000BE4FFE01E55DFE4F8081918101971196EB
:101810009C938E93FE01E55DFE4F80819181009740
:10182000D1F627C08E01055D1E4FFE01E35DFE4F20
:1018300060817181828193810E944100DC01CB0132
:10184000F80191838083DE01A95DBE4FFE01E55D55
:10185000FE4F808191818D939C93FE01E95DFE4F47
:10186000808191810197F1F7FE01E95DFE4F91833F
:101870008083CE01875B9E4F0E94B709CE01865BB5
:101880009E4F0E94470AFE01ED5DFE4F80E090E012
:10189000AAE7B4E480839183A283B3838E01015EBF
:1018A0001E4FFE01ED5DFE4F60817181828193814B
:1018B00020E030E048E453E40E941702DC01CB0151
:1018C000F80180839183A283B383FE01E15EFE4F22
:1018D000608171818281938120E030E040E85FE3A4
:1018E0000E947103882344F4FE01E35EFE4F81E011
:1018F00090E09183808364C0FE01E15EFE4F6081D1
:1019000071818281938120E03FEF4FE757E40E948D
:10191000110318160CF043C0FE01ED5DFE4F60810F
:1019200071818281938120E030E040E251E40E94A5
:101930001702DC01CB018E01035E1E4FBC01CD01FD
:101940000E944100DC01CB01F801918380831FC01C
:10195000FE01E55EFE4F84E190E091838083FE010D
:10196000E55EFE4F808191810197F1F7FE01E55E12
:10197000FE4F91838083DE01A35EBE4FFE01E35ED6
:10198000FE4F80819181019711969C938E93FE0169
:10199000E35EFE4F808191810097D1F627C08E01D2
:1019A000035E1E4FFE01E15EFE4F60817181828108
:1019B00093810E944100DC01CB01F8019183808377
:1019C000DE01A75EBE4FFE01E35EFE4F8081918186
:1019D0008D939C93FE01E75EFE4F8081918101977C
:1019E000F1F7FE01E75EFE4F91838083CE01875BB6
:1019F0009E4F0E94B709CE01865B9E4F0E94350A1A
:101A0000FE01EB5EFE4F80E090E0AAE7B4E4808345
:101A10009183A283B3838E010F5E1E4FFE01EB5EA6
:101A2000FE4F608171818281938120E030E048E443
:101A300053E40E941702DC01CB01F80180839183FB
:101A4000A283B383FE01EF5EFE4F608171818281CC
:101A5000938120E030E040E85FE30E947103882337
:101A600044F4FE01E15FFE4F81E090E091838083CA
:101A700064C0FE01EF5EFE4F6081718182819381BF
:101A800020E03FEF4FE757E40E94110318160CF0D7
:101A900043C0FE01EB5EFE4F6081718182819381C4
:101AA00020E030E040E251E40E941702DC01CB016B
:101AB0008E01015F1E4FBC01CD010E944100DC017F
:101AC000CB01F801918380831FC0FE01E35FFE4FCD
:101AD00084E190E091838083FE01E35FFE4F80818B
:101AE00091810197F1F7FE01E35FFE4F91838083BF
:101AF000DE01A15FBE4FFE01E15FFE4F808191815B
:101B0000019711969C938E93FE01E15FFE4F8081B9
:101B100091810097D1F627C08E01015F1E4FFE0113
:101B2000EF5EFE4F60817181828193810E9441004E
:101B3000DC01CB01F80191838083DE01A55FBE4FFC
:101B4000FE01E15FFE4F808191818D939C93FE01A8
:101B5000E55FFE4F808191810197F1F7FE01E55F1E
:101B6000FE4F91838083CE01875B9E4F0E94B70911
:101B7000CE01865B9E4F0E94230AFE01E95FFE4F65
:101B800080E090E0AAE7B4E480839183A283B383EA
:101B90008E010D5F1E4FFE01E95FFE4F6081718176
:101BA0008281938120E030E048E453E40E941702F0
:101BB000DC01CB01F80180839183A283B383FE0112
:101BC000ED5FFE4F608171818281938120E030E082
:101BD00040E85FE30E947103882344F4FE01EF5F55
:101BE000FE4F81E090E09183808364C0FE01ED5F51
:101BF000FE4F608171818281938120E03FEF4FE74A
:101C000057E40E94110318160CF043C0FE01E95F6F
:101C1000FE4F608171818281938120E030E040E25B
:101C200051E40E941702DC01CB018E010F5F1E4FB1
:101C3000BC01CD010E944100DC01CB01F801918380
:101C400080831FC0FE01E150FF4F84E190E091834B
:101C50008083FE01E150FF4F808191810197F1F770
:101C6000FE01E150FF4F91838083DE01AF5FBE4FE5
:101C7000FE01EF5FFE4F80819181019711969C9349
:101C80008E93FE01EF5FFE4F808191810097D1F628
:101C900027C08E010F5F1E4FFE01ED5FFE4F60817A
:101CA0007181828193810E944100DC01CB01F801A6
:101CB00091838083DE01A350BF4FFE01EF5FFE4F93
:101CC000808191818D939C93FE01E350FF4F808131
:101CD00091810197F1F7FE01E350FF4F91838083DB
:101CE000CE01875B9E4F0E94B709CE01865B9E4F57
:101CF0000E94110AFE01E750FF4F80E090E0AAE742
:101D0000B4E480839183A283B3838E010B501F4F71
:101D1000FE01E750FF4F608171818281938120E055
:101D200030E048E453E40E941702DC01CB01F801E3
:101D300080839183A283B383FE01EB50FF4F6081C8
:101D400071818281938120E030E040E85FE30E946E
:101D50007103882344F4FE01ED50FF4F81E090E0D1
:101D60009183808364C0FE01EB50FF4F60817181DD
:101D70008281938120E03FEF4FE757E40E941103F7
:101D800018160CF043C0FE01E750FF4F60817181CF
:101D90008281938120E030E040E251E40E9417020A
:101DA000DC01CB018E010D501F4FBC01CD010E9403
:101DB0004100DC01CB01F801918380831FC0FE014B
:101DC000EF50FF4F84E190E091838083FE01EF505C
:101DD000FF4F808191810197F1F7FE01EF50FF4F96
:101DE00091838083DE01AD50BF4FFE01ED50FF4F68
:101DF00080819181019711969C938E93FE01ED5005
:101E0000FF4F808191810097D1F627C08E010D5040
:101E10001F4FFE01EB50FF4F6081718182819381E2
:101E20000E944100DC01CB01F80191838083DE0137
:101E3000A151BF4FFE01ED50FF4F808191818D93E5
:101E40009C93FE01E151FF4F808191810197F1F751
:101E5000FE01E151FF4F91838083CE01875B9E4F4E
:101E60000E94B709CE01865B9E4F0E94FF09FE01CA
:101E7000E551FF4F80E090E0AAE7B4E480839183CE
:101E8000A283B3838E0109511F4FFE01E551FF4F1D
:101E9000608171818281938120E030E048E453E4E5
:101EA0000E941702DC01CB01F80180839183A28399
:101EB000B383FE01E951FF4F60817181828193817B
:101EC00020E030E040E85FE30E947103882344F49F
:101ED000FE01EB51FF4F81E090E09183808364C06D
:101EE000FE01E951FF4F608171818281938120E081
:101EF0003FEF4FE757E40E94110318160CF043C060
:101F0000FE01E551FF4F608171818281938120E064
:101F100030E040E251E40E941702DC01CB018E0167
:101F20000B511F4FBC01CD010E944100DC01CB01D0
:101F3000F801918380831FC0FE01ED51FF4F84E1C2
:101F400090E091838083FE01ED51FF4F808191816C
:101F50000197F1F7FE01ED51FF4F91838083DE0180
:101F6000AB51BF4FFE01EB51FF4F80819181019733
:101F700011969C938E93FE01EB51FF4F80819181CE
:101F80000097D1F627C08E010B511F4FFE01E9517A
:101F9000FF4F60817181828193810E944100DC0149
:101FA000CB01F80191838083DE01AF51BF4FFE0169
:101FB000EB51FF4F808191818D939C93FE01EF51F6
:101FC000FF4F808191810197F1F7FE01EF51FF4FA3
:101FD00091838083CE01875B9E4F0E94B709CE011B
:101FE000865B9E4F0E94ED09FE01E352FF4F80E0A9
:101FF00090E0AAE7B4E480839183A283B3838E0147
:1020000007521F4FFE01E352FF4F608171818281B1
:10201000938120E030E048E453E40E941702DC01A1
:10202000CB01F80180839183A283B383FE01E75241
:10203000FF4F608171818281938120E030E040E830
:102040005FE30E947103882344F4FE01E952FF4FCD
:1020500081E090E09183808364C0FE01E752FF4FEE
:10206000608171818281938120E03FEF4FE757E4E7
:102070000E94110318160CF043C0FE01E352FF4FFB
:10208000608171818281938120E030E040E251E4FF
:102090000E941702DC01CB018E0109521F4FBC01C7
:1020A000CD010E944100DC01CB01F80191838083C6
:1020B0001FC0FE01EB52FF4F84E190E091838083CB
:1020C000FE01EB52FF4F808191810197F1F7FE01F4
:1020D000EB52FF4F91838083DE01A952BF4FFE0177
:1020E000E952FF4F80819181019711969C938E93C5
:1020F000FE01E952FF4F808191810097D1F627C000
:102100008E0109521F4FFE01E752FF4F608171811E
:10211000828193810E944100DC01CB01F80191830F
:102120008083DE01AD52BF4FFE01E952FF4F808137
:1021300091818D939C93FE01ED52FF4F808191819F
:102140000197F1F7FE01ED52FF4F91838083CE019D
:10215000875B9E4F0E94B709CE01865B9E4F0E940F
:10216000DB09FE01E153FF4F80E090E0AAE7B4E411
:1021700080839183A283B3838E0105531F4FFE0199
:10218000E153FF4F608171818281938120E030E0D3
:1021900048E453E40E941702DC01CB01F80180837C
:1021A0009183A283B383FE01E553FF4F6081718168
:1021B0008281938120E030E040E85FE30E94710378
:1021C000882344F4FE01E753FF4F81E090E09183C0
:1021D000808364C0FE01E553FF4F6081718182817D
:1021E000938120E03FEF4FE757E40E941103181658
:1021F0000CF043C0FE01E153FF4F60817181828189
:10220000938120E030E040E251E40E941702DC01BB
:10221000CB018E0107531F4FBC01CD010E9441002D
:10222000DC01CB01F801918380831FC0FE01E953DB
:10223000FF4F84E190E091838083FE01E953FF4FDB
:10224000808191810197F1F7FE01E953FF4F91835E
:102250008083DE01A753BF4FFE01E753FF4F80810C
:102260009181019711969C938E93FE01E753FF4F46
:10227000808191810097D1F627C08E0107531F4FAF
:10228000FE01E553FF4F60817181828193810E943D
:102290004100DC01CB01F80191838083DE01AB5367
:1022A000BF4FFE01E753FF4F808191818D939C9337
:1022B000FE01EB53FF4F808191810197F1F7FE0101
:1022C000EB53FF4F91838083CE01875B9E4F0E942B
:1022D000B709CE01865B9E4F0E94C909FE01EF53EC
:1022E000FF4F80E090E0AAE7B4E480839183A2836B
:1022F000B3838E0103541F4FFE01EF53FF4F6081E4
:1023000071818281938120E030E048E453E40E94AF
:102310001702DC01CB01F80180839183A283B38390
:10232000FE01E354FF4F608171818281938120E03F
:1023300030E040E85FE30E947103882344F4FE012B
:10234000E554FF4F81E090E09183808364C0FE01FB
:10235000E354FF4F608171818281938120E03FEFE0
:102360004FE757E40E94110318160CF043C0FE011A
:10237000EF53FF4F608171818281938120E030E0D3
:1023800040E251E40E941702DC01CB018E010554AA
:102390001F4FBC01CD010E944100DC01CB01F801BF
:1023A000918380831FC0FE01E754FF4F84E190E0DA
:1023B00091838083FE01E754FF4F808191810197D3
:1023C000F1F7FE01E754FF4F91838083DE01A554AE
:1023D000BF4FFE01E554FF4F808191810197119617
:1023E0009C938E93FE01E554FF4F8081918100976D
:1023F000D1F627C08E0105541F4FFE01E354FF4F55
:1024000060817181828193810E944100DC01CB0156
:10241000F80191838083DE01A954BF4FFE01E5548A
:10242000FF4F808191818D939C93FE01E954FF4F72
:10243000808191810197F1F7FE01E954FF4F91836B
:102440008083CE018D5B9E4F0E948F09CE018B5BF6
:102450009E4F0E947909CE01875B9E4F0E94B7096B
:10246000CE01865B9E4F0E94ED09FE01ED54FF4FA9
:1024700080E090E0AAE7B4E480839183A283B383F1
:102480008E0101551F4FFE01ED54FF4F6081718198
:102490008281938120E030E048E453E40E941702F7
:1024A000DC01CB01F80180839183A283B383FE0119
:1024B000E155FF4F608171818281938120E030E09E
:1024C00040E85FE30E947103882344F4FE01E35572
:1024D000FF4F81E090E09183808364C0FE01E1556D
:1024E000FF4F608171818281938120E03FEF4FE750
:1024F00057E40E94110318160CF043C0FE01ED547E
:10250000FF4F608171818281938120E030E040E261
:1025100051E40E941702DC01CB018E0103551F4FCD
:10252000BC01CD010E944100DC01CB01F801918387
:1025300080831FC0FE01E555FF4F84E190E0918349
:102540008083FE01E555FF4F808191810197F1F76E
:10255000FE01E555FF4F91838083DE01A355BF4FF8
:10256000FE01E355FF4F80819181019711969C9365
:102570008E93FE01E355FF4F808191810097D1F644
:1025800027C08E0103551F4FFE01E155FF4F6081AB
:102590007181828193810E944100DC01CB01F801AD
:1025A00091838083DE01A755BF4FFE01E355FF4FA6
:1025B000808191818D939C93FE01E755FF4F80812F
:1025C00091810197F1F7FE01E755FF4F91838083D9
:1025D000CE01875B9E4F0E94B709CE01865B9E4F5E
:1025E0000E94DB09FE01EB55FF4F80E090E0AAE777
:1025F000B4E480839183A283B3838E010F551F4F70
:10260000FE01EB55FF4F608171818281938120E053
:1026100030E048E453E40E941702DC01CB01F801EA
:1026200080839183A283B383FE01EF55FF4F6081C6
:1026300071818281938120E030E040E85FE30E9475
:102640007103882344F4FE01E156FF4F81E090E0DE
:102650009183808364C0FE01EF55FF4F60817181DB
:102660008281938120E03FEF4FE757E40E941103FE
:1026700018160CF043C0FE01EB55FF4F60817181CD
:102680008281938120E030E040E251E40E94170211
:10269000DC01CB018E0101561F4FBC01CD010E9410
:1026A0004100DC01CB01F801918380831FC0FE0152
:1026B000E356FF4F84E190E091838083FE01E3566F
:1026C000FF4F808191810197F1F7FE01E356FF4FA3
:1026D00091838083DE01A156BF4FFE01E156FF4F7B
:1026E00080819181019711969C938E93FE01E15612
:1026F000FF4F808191810097D1F627C08E0101564E
:102700001F4FFE01EF55FF4F6081718182819381E0
:102710000E944100DC01CB01F80191838083DE013E
:10272000A556BF4FFE01E156FF4F808191818D93E9
:102730009C93FE01E556FF4F808191810197F1F74F
:10274000FE01E556FF4F91838083CE01875B9E4F4C
:102750000E94B709CE01865B9E4F0E94C909FE0107
:10276000E956FF4F80E090E0AAE7B4E480839183CC
:10277000A283B3838E010D561F4FFE01E956FF4F12
:10278000608171818281938120E030E048E453E4EC
:102790000E941702DC01CB01F80180839183A283A0
:1027A000B383FE01ED56FF4F608171818281938179
:1027B00020E030E040E85FE30E947103882344F4A6
:1027C000FE01EF56FF4F81E090E09183808364C06B
:1027D000FE01ED56FF4F608171818281938120E07F
:1027E0003FEF4FE757E40E94110318160CF043C067
:1027F000FE01E956FF4F608171818281938120E063
:1028000030E040E251E40E941702DC01CB018E016E
:102810000F561F4FBC01CD010E944100DC01CB01CE
:10282000F801918380831FC0FE01E157FF4F84E1CF
:1028300090E091838083FE01E157FF4F8081918179
:102840000197F1F7FE01E157FF4F91838083DE018D
:10285000AF56BF4FFE01EF56FF4F80819181019728
:1028600011969C938E93FE01EF56FF4F80819181CC
:102870000097D1F627C08E010F561F4FFE01ED566F
:10288000FF4F60817181828193810E944100DC0150
:10289000CB01F80191838083DE01A357BF4FFE0176
:1028A000EF56FF4F808191818D939C93FE01E357FA
:1028B000FF4F808191810197F1F7FE01E357FF4FB0
:1028C00091838083CE018B5B9E4F0E948F09CE0146
:1028D000895B9E4F0E947909CE01875B9E4F0E94C3
:1028E000C909CE01865B9E4F0E94B709FE01E757DA
:1028F000FF4F80E090E0AAE7B4E480839183A28355
:10290000B3838E010B571F4FFE01E757FF4F6081C6
:1029100071818281938120E030E048E453E40E9499
:102920001702DC01CB01F80180839183A283B3837A
:10293000FE01EB57FF4F608171818281938120E01E
:1029400030E040E85FE30E947103882344F4FE0115
:10295000ED57FF4F81E090E09183808364C0FE01DA
:10296000EB57FF4F608171818281938120E03FEFBF
:102970004FE757E40E94110318160CF043C0FE0104
:10298000E757FF4F608171818281938120E030E0C1
:1029900040E251E40E941702DC01CB018E010D5789
:1029A0001F4FBC01CD010E944100DC01CB01F801A9
:1029B000918380831FC0FE01EF57FF4F84E190E0B9
:1029C00091838083FE01EF57FF4F808191810197B2
:1029D000F1F7FE01EF57FF4F91838083DE01AD5782
:1029E000BF4FFE01ED57FF4F8081918101971196F6
:1029F0009C938E93FE01ED57FF4F8081918100974C
:102A0000D1F627C08E010D571F4FFE01EB57FF4F28
:102A100060817181828193810E944100DC01CB0140
:102A2000F80191838083DE01A158BF4FFE01ED576D
:102A3000FF4F808191818D939C93FE01E158FF4F60
:102A4000808191810197F1F7FE01E158FF4F918359
:102A50008083CE01875B9E4F0E94B709CE01865BC3
:102A60009E4F0E94590AFE01E558FF4F80E090E01A
:102A7000AAE7B4E480839183A283B3838E010958CB
:102A80001F4FFE01E558FF4F608171818281938164
:102A900020E030E048E453E40E941702DC01CB015F
:102AA000F80180839183A283B383FE01E958FF4F2D
:102AB000608171818281938120E030E040E85FE3B2
:102AC0000E947103882344F4FE01EB58FF4F81E01C
:102AD00090E09183808364C0FE01E958FF4F6081DC
:102AE00071818281938120E03FEF4FE757E40E949C
:102AF000110318160CF043C0FE01E558FF4F60812A
:102B000071818281938120E030E040E251E40E94B3
:102B10001702DC01CB018E010B581F4FBC01CD0108
:102B20000E944100DC01CB01F801918380831FC02A
:102B3000FE01ED58FF4F84E190E091838083FE0118
:102B4000ED58FF4F808191810197F1F7FE01ED581B
:102B5000FF4F91838083DE01AB58BF4FFE01EB58DE
:102B6000FF4F80819181019711969C938E93FE0176
:102B7000EB58FF4F808191810097D1F627C08E01DD
:102B80000B581F4FFE01E958FF4F60817181828110
:102B900093810E944100DC01CB01F8019183808385
:102BA000DE01AF58BF4FFE01EB58FF4F808191818E
:102BB0008D939C93FE01EF58FF4F80819181019787
:102BC000F1F7FE01EF58FF4F91838083CE01875BC1
:102BD0009E4F0E94B709CE01865B9E4F0E94470A16
:102BE000FE01E359FF4F80E090E0AAE7B4E4808360
:102BF0009183A283B3838E0107591F4FFE01E359CE
:102C0000FF4F608171818281938120E030E048E450
:102C100053E40E941702DC01CB01F8018083918309
:102C2000A283B383FE01E759FF4F608171818281E6
:102C3000938120E030E040E85FE30E947103882345
:102C400044F4FE01E959FF4F81E090E091838083D5
:102C500064C0FE01E759FF4F6081718182819381D9
:102C600020E03FEF4FE757E40E94110318160CF0E5
:102C700043C0FE01E359FF4F6081718182819381DE
:102C800020E030E040E251E40E941702DC01CB0179
:102C90008E0109591F4FBC01CD010E944100DC018A
:102CA000CB01F801918380831FC0FE01EB59FF4FD8
:102CB00084E190E091838083FE01EB59FF4F808196
:102CC00091810197F1F7FE01EB59FF4F91838083CA
:102CD000DE01A959BF4FFE01E959FF4F8081918163
:102CE000019711969C938E93FE01E959FF4F8081C5
:102CF00091810097D1F627C08E0109591F4FFE011F
:102D0000E759FF4F60817181828193810E94410068
:102D1000DC01CB01F80191838083DE01AD59BF4F07
:102D2000FE01E959FF4F808191818D939C93FE01B3
:102D3000ED59FF4F808191810197F1F7FE01ED5927
:102D4000FF4F91838083CE01875B9E4F0E94B7091E
:102D5000CE01865B9E4F0E94350AFE01E15AFF4F6D
:102D600080E090E0AAE7B4E480839183A283B383F8
:102D70008E01055A1F4FFE01E15AFF4F608171819C
:102D80008281938120E030E048E453E40E941702FE
:102D9000DC01CB01F80180839183A283B383FE0120
:102DA000E55AFF4F608171818281938120E030E09C
:102DB00040E85FE30E947103882344F4FE01E75A70
:102DC000FF4F81E090E09183808364C0FE01E55A6B
:102DD000FF4F608171818281938120E03FEF4FE757
:102DE00057E40E94110318160CF043C0FE01E15A8B
:102DF000FF4F608171818281938120E030E040E269
:102E000051E40E941702DC01CB018E01075A1F4FCB
:102E1000BC01CD010E944100DC01CB01F80191838E
:102E200080831FC0FE01E95AFF4F84E190E0918347
:102E30008083FE01E95AFF4F808191810197F1F76C
:102E4000FE01E95AFF4F91838083DE01A75ABF4FED
:102E5000FE01E75AFF4F80819181019711969C9363
:102E60008E93FE01E75AFF4F808191810097D1F642
:102E700027C08E01075A1F4FFE01E55AFF4F6081A0
:102E80007181828193810E944100DC01CB01F801B4
:102E900091838083DE01AB5ABF4FFE01E75AFF4F9B
:102EA000808191818D939C93FE01EB5AFF4F80812D
:102EB00091810197F1F7FE01EB5AFF4F91838083D7
:102EC000CE01875B9E4F0E94B709CE01865B9E4F65
:102ED0000E94230AFE01EF5AFF4F80E090E0AAE72C
:102EE000B4E480839183A283B3838E01035B1F4F7D
:102EF000FE01EF5AFF4F608171818281938120E052
:102F000030E048E453E40E941702DC01CB01F801F1
:102F100080839183A283B383FE01E35BFF4F6081D3
:102F200071818281938120E030E040E85FE30E947C
:102F30007103882344F4FE01E55BFF4F81E090E0DC
:102F40009183808364C0FE01E35BFF4F60817181E8
:102F50008281938120E03FEF4FE757E40E94110305
:102F600018160CF043C0FE01EF5AFF4F60817181CB
:102F70008281938120E030E040E251E40E94170218
:102F8000DC01CB018E01055B1F4FBC01CD010E940E
:102F90004100DC01CB01F801918380831FC0FE0159
:102FA000E75BFF4F84E190E091838083FE01E75B64
:102FB000FF4F808191810197F1F7FE01E75BFF4FA1
:102FC00091838083DE01A55BBF4FFE01E55BFF4F70
:102FD00080819181019711969C938E93FE01E55B10
:102FE000FF4F808191810097D1F627C08E01055B4C
:102FF0001F4FFE01E35BFF4F6081718182819381EE
:103000000E944100DC01CB01F80191838083DE0145
:10301000A95BBF4FFE01E55BFF4F808191818D93DE
:103020009C93FE01E95BFF4F808191810197F1F74D
:10303000FE01E95BFF4F91838083CE01875B9E4F4A
:103040000E94B709CE01865B9E4F0E94110AFE01C5
:10305000ED5BFF4F80E090E0AAE7B4E480839183CA
:10306000A283B3838E01015C1F4FFE01ED5BFF4F16
:10307000608171818281938120E030E048E453E4F3
:103080000E941702DC01CB01F80180839183A283A7
:10309000B383FE01FF96608171818281938120E07C
:1030A00030E040E85FE30E94710388232CF481E064
:1030B00090E09EAF8DAF46C0FE01FF9660817181AA
:1030C0008281938120E03FEF4FE757E40E94110394
:1030D000181664F5FE01ED5BFF4F608171818281FE
:1030E000938120E030E040E251E40E941702DC01CD
:1030F000CB01BC01CD010E944100DC01CB019EAFA0
:103100008DAF0FC084E190E09CAF8BAF8BAD9CADD9
:103110000197F1F79CAF8BAF8DAD9EAD01979EAF40
:103120008DAF8DAD9EAD009769F716C0FE01FF967D
:1031300060817181828193810E944100DC01CB0119
:103140009EAF8DAF8DAD9EAD9AAF89AF89AD9AAD73
:103150000197F1F79AAF89AFCE01875B9E4F0E942E
:10316000B709CE01865B9E4F0E94FF0980E090E088
:10317000AAE7B4E48DAB9EABAFABB8AF6DA97EA9A7
:103180008FA998AD20E030E048E453E40E94170294
:10319000DC01CB0189AB9AABABABBCAB69A97AA91B
:1031A0008BA99CA920E030E040E85FE30E94710316
:1031B00088232CF481E090E098AB8FA73FC069A9E9
:1031C0007AA98BA99CA920E03FEF4FE757E40E9422
:1031D000110318164CF56DA97EA98FA998AD20E0B2
:1031E00030E040E251E40E941702DC01CB01BC0157
:1031F000CD010E944100DC01CB0198AB8FA70FC02D
:1032000084E190E09EA78DA78DA59EA50197F1F77B
:103210009EA78DA78FA598A9019798AB8FA78FA57B
:1032200098A9009769F714C069A97AA98BA99CA9E4
:103230000E944100DC01CB0198AB8FA78FA598A914
:103240009CA78BA78BA59CA50197F1F79CA78BA7A3
:10325000CE01875B9E4F0E94B709CE01865B9E4FD1
:103260000E94ED0980E090E0AAE7B4E48FA398A75C
:10327000A9A7BAA76FA178A589A59AA520E030E0F3
:1032800048E453E40E941702DC01CB018BA39CA30A
:10329000ADA3BEA36BA17CA18DA19EA120E030E0D7
:1032A00040E85FE30E94710388232CF481E090E002
:1032B0009AA389A33FC06BA17CA18DA19EA120E010
:1032C0003FEF4FE757E40E94110318164CF56FA12A
:1032D00078A589A59AA520E030E040E251E40E945B
:1032E0001702DC01CB01BC01CD010E944100DC01D1
:1032F000CB019AA389A30FC084E190E098A38F8F9C
:103300008F8D98A10197F1F798A38F8F89A19AA12A
:1033100001979AA389A389A19AA1009769F714C07C
:103320006BA17CA18DA19EA10E944100DC01CB017B
:103330009AA389A389A19AA19E8F8D8F8D8D9E8D31
:103340000197F1F79E8F8D8FCE01875B9E4F0E9474
:10335000B709CE01865B9E4F0E94DB0980E090E0BA
:10336000AAE7B4E4898F9A8FAB8FBC8F698D7A8D71
:103370008B8D9C8D20E030E048E453E40E941702DE
:10338000DC01CB018D8B9E8BAF8BB88F6D897E89D5
:103390008F89988D20E030E040E85FE30E94710360
:1033A00088232CF481E090E09C8B8B8B3FC06D894F
:1033B0007E898F89988D20E03FEF4FE757E40E9488
:1033C000110318164CF5698D7A8D8B8D9C8D20E03C
:1033D00030E040E251E40E941702DC01CB01BC0165
:1033E000CD010E944100DC01CB019C8B8B8B0FC077
:1033F00084E190E09A8B898B89899A890197F1F70A
:103400009A8B898B8B899C8901979C8B8B8B8B8961
:103410009C89009769F714C06D897E898F89988D82
:103420000E944100DC01CB019C8B8B8B8B899C899A
:10343000988B8F878F8598890197F1F7988B8F8765
:10344000CE01875B9E4F0E94B709CE01865B9E4FDF
:103450000E94C90980E090E0AAE7B4E48B879C87CA
:10346000AD87BE876B857C858D859E8520E030E0AD
:1034700048E453E40E941702DC01CB018F83988754
:10348000A987BA876F81788589859A8520E030E0A1
:1034900040E85FE30E94710388232CF481E090E010
:1034A0009E838D8340C06F81788589859A8520E0D1
:1034B0003FEF4FE757E40E941103181654F56B8550
:1034C0007C858D859E8520E030E040E251E40E94BD
:1034D0001702DC01CB01BC01CD010E944100DC01DF
:1034E000CB019E838D830FC084E190E09C838B830E
:1034F0008B819C810197F1F79C838B838D819E81C9
:1035000001979E838D838D819E81009769F70C942E
:10351000B50A6F81788589859A850E944100DC0112
:10352000CB019E838D838D819E819A83898389813E
:103530009A810197F1F79A8389830C94B50A2F92A7
:103540003F924F925F926F927F928F929F92AF9233
:10355000BF92CF92DF92EF92FF920F931F93CF9380
:10356000DF93CDB7DEB7CA1BDB0B0FB6F894DEBF17
:103570000FBECDBF09942A88398848885F846E843D
:103580007D848C849B84AA84B984C884DF80EE8087
:10359000FD800C811B81AA81B981CE0FD11D0FB690
:1035A000F894DEBF0FBECDBFED010895F894FFCFB4
:0835B000000000000000000013
:00000001FF
